:100000000C9434000C9451000C9451000C94510049
:100010000C9451000C9451000C9451000C9451001C
:100020000C9451000C9451000C9451000C9451000C
:100030000C9451000C9451000C9451000C945100FC
:100040000C9451000C9451000C949B000C945100A2
:100050000C9451000C9451000C9451000C945100DC
:100060000C9451000C94510011241FBECFEFD8E026
:10007000DEBFCDBF11E0A0E0B1E0EEE6F1E002C0EE
:1000800005900D92AE30B107D9F721E0AEE0B1E0B6
:1000900001C01D92AF30B207E1F70E9490000C94AE
:1000A000B5000C9400001AB88AB18E7F8AB98FEF20
:1000B00084B98AB182608AB917B887B1836087B979
:1000C00008951092C000E1ECF0E010828081886910
:1000D0008083E2ECF0E0108280818660808387E696
:1000E00090E09093C5008093C40008959091C00063
:1000F00095FFFCCF8093C60008950F931F93CF9375
:100100008C01C0E003C00E947600CF5FF801EC0FC5
:10011000F11D80818111F7CFCF911F910F9108952B
:10012000F8940E9453000E946100789480E091E06E
:100130000E947D00FFCF1F920F920FB60F921124E5
:100140008F938091C60080930E0180910E0185B936
:1001500080910E01829586958695837088B98F91DE
:0E0160000F900FBE0F901F901895F894FFCFD0
:0E016E00486F6C61204D756E646F214000007B
:00000001FF
