:100000000C9434000C9451000C9451000C94510049
:100010000C9451000C9451000C9451000C9451001C
:100020000C9451000C9451000C9451000C9451000C
:100030000C9451000C9451000C9451000C945100FC
:100040000C9451000C9451000C9421010C9451001B
:100050000C9451000C9469000C9451000C945100C4
:100060000C9451000C94510011241FBECFEFD8E026
:10007000DEBFCDBF11E0A0E0B1E0E0EBF2E002C0F6
:1000800005900D92A636B107D9F721E0A6E6B1E0BA
:1000900001C01D92A936B207E1F70E94C2000C947C
:1000A00056010C940000ECE7F0E010828081876636
:1000B0008083EAE7F0E0108280818F608083808116
:1000C0008068808380818064808308958091670147
:1000D00008951F920F920FB60F9211248F93EF93F2
:1000E000FF938091790080936701EAE7F0E08081D7
:1000F00080618083808180648083FF91EF918F9104
:100100000F900FBE0F901F9018951AB88AB18E7F6E
:100110008AB98FEF84B98AB182608AB917B887B17A
:10012000836087B908951092C000E1ECF0E010827E
:10013000808188698083E2ECF0E0108280818660B3
:10014000808387E690E09093C5008093C400089573
:100150009091C00095FFFCCF8093C60008950F9347
:100160001F93CF938C01C0E003C00E94A800CF5F13
:10017000F801EC0FF11D80818111F7CFCF911F9114
:100180000F910895F8940E9485000E9453000E94E8
:100190009300789481E091E00E94AF00809100018B
:1001A0008130E1F38230B1F50E94660080936601F0
:1001B00088E291E00E94AF0080E004C08F5F945617
:1001C00090936601909166019436C0F7805D0E941D
:1001D000A80080E004C08F5F9A50909366019091D0
:1001E00066019A30C0F7805D0E94A80080E004C0DC
:1001F0008F5F915090936601909166019111F8CFB5
:10020000805D0E94A8008AE00E94A80081E080939F
:100210000001C0CF843081F486E391E00E94AF00FA
:10022000809100018430E1F3809168010E94A80070
:100230008AE00E94A800AECF8FE491E00E94AF0058
:10024000A9CF1F920F920FB60F9211248F93809116
:10025000C60080936801809100018130A1F48091F3
:100260006801813321F482E08093000119C08091FC
:100270006801823321F484E08093000111C088E09A
:10028000809300010DC08091680185B9809168015B
:10029000829586958695837088B981E08093000168
:1002A0008F910F900FBE0F901F901895F894FFCF6D
:1002B00001312E204C65657220506F74656E636944
:1002C0006F6D6574726F0A322E20456E76696172A9
:1002D0002061736369690A00456C2076616C6F72F6
:1002E0002065733A2000496E74726F64757A636199
:1002F00020656C2063617261637465723A20004509
:100300006C696A6120756E206D6F646F2076616C18
:0603100069646F0A0000A1
:00000001FF
