S0180000554152545F4C61625F506F73746C61622E737265632E
S11300000C9434000C9446000C9446000C94460066
S11300100C9446000C9446000C9446000C94460044
S11300200C9446000C9446000C9446000C94460034
S11300300C9446000C9446000C9446000C94460024
S11300400C9446000C9446000C9467000C944600F3
S11300500C9446000C9446000C9446000C94460004
S11300600C9446000C94460011241FBECFEFD8E038
S1130070DEBFCDBF21E0A0E0B1E001C01D92A13000
S1130080B207E1F70E9487000C94AF000C940000C3
S11300908FEF84B908951AB88AB18E7F8AB98AB16C
S11300A082608AB91092C000E1ECF0E01082808195
S11300B088698083E2ECF0E010828081866080832E
S11300C087E690E09093C5008093C40008951F9242
S11300D00F920FB60F9211248F938091C6008093D4
S11300E0000185B98091C00085FFFCCF809100019B
S11300F08093C6008F910F900FBE0F901F9018959C
S11301009091C00095FFFCCF8093C6000895F894A9
S11301100E9448000E944B00789488E40E9480006A
S11301208FE60E9480008CE60E94800081E60E9497
S1130130800080E20E9480008DE60E94800085E7B6
S11301400E9480008EE60E94800084E60E94800067
S11301508FE60E9480008AE00E948000FFCFF8941E
S1050160FFCFCB
S9030000FC
