S0130000554152545F5072656C61622E7372656320
S11300000C9434000C9446000C9446000C94460066
S11300100C9446000C9446000C9446000C94460044
S11300200C9446000C9446000C9446000C94460034
S11300300C9446000C9446000C9446000C94460024
S11300400C9446000C9446000C9448000C94460012
S11300500C9446000C9446000C9446000C94460004
S11300600C9446000C94460011241FBECFEFD8E038
S1130070DEBFCDBF21E0A0E0B1E001C01D92A13000
S1130080B207E1F70E947F000C9492000C940000E8
S11300901F920F920FB60F9211248F938091C60076
S11300A0809300018091000185B98F910F900FBE5C
S11300B00F901F9018951AB88AB181608AB914B844
S11300C084B18F6384B908951092C000A1ECB0E0AC
S11300D01C92E2ECF0E010828C9188698C93808110
S11300E0808387E690E09093C5008093C4000895D0
S11300F09091C00095FFFCCF8093C6000895F894BA
S11301000E945B000E946400789488E40E94780056
S11301102FEF83ED90E3215080409040E1F700C041
S10B01200000F3CFF894FFCFB7
S9030000FC
