:100000000C9434000C9446000C9446000C9446006A
:100010000C9446000C9446000C9446000C94460048
:100020000C9446000C9446000C9446000C94460038
:100030000C9446000C9446000C9446000C94460028
:100040000C9446000C9446000C9448000C94460016
:100050000C9446000C9446000C9446000C94460008
:100060000C9446000C94460011241FBECFEFD8E03C
:10007000DEBFCDBF21E0A0E0B1E001C01D92A23003
:10008000B207E1F70E9493000C94A7000C940000C3
:100090001F920F920FB60F9211242F938F939F935D
:1000A0009091C600909301012BB1892F90E0880FA9
:1000B000991F880F991F822B8BB995B180910101EF
:1000C0008295869586958370892B85B99F918F91AE
:1000D0002F910F900FBE0F901F9018951AB88AB1EC
:1000E0008D6F8AB914B884B1836084B90895109271
:1000F000C000A1ECB0E01C92E2ECF0E010828C9128
:1001000088698C9380818460808387E690E09093F7
:10011000C5008093C40008959091C00095FFFCCF66
:100120008093C6000895F8940E946E000E947700A4
:100130007894809100010E948C002FEF83ED90E372
:10014000215080409040E1F700C00000F2CFF894C9
:02015000FFCFDF
:00000001FF
